{
  "contractName": "TicTacToeGame",
  "abi": [
    {
      "constant": false,
      "inputs": [],
      "name": "getGameStatus",
      "outputs": [
        {
          "name": "",
          "type": "uint8"
        }
      ],
      "payable": false,
      "stateMutability": "nonpayable",
      "type": "function"
    },
    {
      "constant": false,
      "inputs": [],
      "name": "getOpponent",
      "outputs": [
        {
          "name": "",
          "type": "address"
        }
      ],
      "payable": false,
      "stateMutability": "nonpayable",
      "type": "function"
    },
    {
      "constant": false,
      "inputs": [],
      "name": "acceptGame",
      "outputs": [
        {
          "name": "",
          "type": "bool"
        }
      ],
      "payable": false,
      "stateMutability": "nonpayable",
      "type": "function"
    },
    {
      "constant": false,
      "inputs": [
        {
          "name": "position",
          "type": "uint8"
        }
      ],
      "name": "getPosition",
      "outputs": [
        {
          "name": "",
          "type": "address"
        }
      ],
      "payable": false,
      "stateMutability": "nonpayable",
      "type": "function"
    },
    {
      "constant": false,
      "inputs": [
        {
          "name": "position",
          "type": "uint8"
        }
      ],
      "name": "placeMove",
      "outputs": [
        {
          "name": "",
          "type": "bool"
        }
      ],
      "payable": false,
      "stateMutability": "nonpayable",
      "type": "function"
    },
    {
      "inputs": [],
      "payable": false,
      "stateMutability": "nonpayable",
      "type": "constructor"
    }
  ],
  "bytecode": "0x6060604052341561000f57600080fd5b6000336000806101000a81548173ffffffffffffffffffffffffffffffffffffffff021916908373ffffffffffffffffffffffffffffffffffffffff1602179055506000809054906101000a900473ffffffffffffffffffffffffffffffffffffffff16600360006101000a81548173ffffffffffffffffffffffffffffffffffffffff021916908373ffffffffffffffffffffffffffffffffffffffff160217905550600090505b60098160ff16101561012a576000600460008360ff1660ff16815260200190815260200160002060006101000a81548173ffffffffffffffffffffffffffffffffffffffff021916908373ffffffffffffffffffffffffffffffffffffffff16021790555080806001019150506100b8565b6000600360146101000a81548160ff0219169083600281111561014957fe5b0217905550506105aa8061015e6000396000f30060606040526004361061006d576000357c0100000000000000000000000000000000000000000000000000000000900463ffffffff168063382396ee1461007257806339580054146100a95780636268e921146100fe5780636f6781d31461012b578063d2cc701514610191575b600080fd5b341561007d57600080fd5b6100856101cf565b6040518082600281111561009557fe5b60ff16815260200191505060405180910390f35b34156100b457600080fd5b6100bc6101e6565b604051808273ffffffffffffffffffffffffffffffffffffffff1673ffffffffffffffffffffffffffffffffffffffff16815260200191505060405180910390f35b341561010957600080fd5b610111610210565b604051808215151515815260200191505060405180910390f35b341561013657600080fd5b61014f600480803560ff16906020019091905050610332565b604051808273ffffffffffffffffffffffffffffffffffffffff1673ffffffffffffffffffffffffffffffffffffffff16815260200191505060405180910390f35b341561019c57600080fd5b6101b5600480803560ff16906020019091905050610396565b604051808215151515815260200191505060405180910390f35b6000600360149054906101000a900460ff16905090565b6000600160009054906101000a900473ffffffffffffffffffffffffffffffffffffffff16905090565b60008073ffffffffffffffffffffffffffffffffffffffff16600160009054906101000a900473ffffffffffffffffffffffffffffffffffffffff1673ffffffffffffffffffffffffffffffffffffffff1614151561026e57600080fd5b3373ffffffffffffffffffffffffffffffffffffffff166000809054906101000a900473ffffffffffffffffffffffffffffffffffffffff1673ffffffffffffffffffffffffffffffffffffffff16141515156102ca57600080fd5b33600160006101000a81548173ffffffffffffffffffffffffffffffffffffffff021916908373ffffffffffffffffffffffffffffffffffffffff1602179055506001600360146101000a81548160ff0219169083600281111561032a57fe5b021790555090565b6000808260ff161015801561034a575060098260ff16105b151561035557600080fd5b600460008360ff1660ff16815260200190815260200160002060009054906101000a900473ffffffffffffffffffffffffffffffffffffffff169050919050565b6000600160028111156103a557fe5b600360149054906101000a900460ff1660028111156103c057fe5b1415156103cc57600080fd5b3373ffffffffffffffffffffffffffffffffffffffff16600360009054906101000a900473ffffffffffffffffffffffffffffffffffffffff1673ffffffffffffffffffffffffffffffffffffffff1614151561042857600080fd5b60008260ff161015801561043f575060098260ff16105b151561044a57600080fd5b600073ffffffffffffffffffffffffffffffffffffffff16600460008460ff1660ff16815260200190815260200160002060009054906101000a900473ffffffffffffffffffffffffffffffffffffffff1673ffffffffffffffffffffffffffffffffffffffff161415156104be57600080fd5b33600460008460ff1660ff16815260200190815260200160002060006101000a81548173ffffffffffffffffffffffffffffffffffffffff021916908373ffffffffffffffffffffffffffffffffffffffff160217905550600160009054906101000a900473ffffffffffffffffffffffffffffffffffffffff16600360006101000a81548173ffffffffffffffffffffffffffffffffffffffff021916908373ffffffffffffffffffffffffffffffffffffffff1602179055509190505600a165627a7a72305820ca529476077b75889a2fd5f31575612b5c4674f46c1f7ce0447ff586a6244aac0029",
  "source": "pragma solidity ^0.4.4;\n\n//3x3 Tic Tac Toe Game\ncontract TicTacToeGame {\n\taddress owner;\n    address opponent;\n    \n    address winner;\n    \n    address currentPlayer;\n    \n    GameStatus currentGameStatus;\n    \n    enum GameStatus { NotStarted, InProgress, Ended }\n    \n    mapping (uint8 => address) board;\n\n\tfunction TicTacToeGame() public { \n\t    owner = msg.sender;\n\t    currentPlayer = owner;\n\t    \n\t    for (uint8 i = 0; i < 9; i++) {\n\t        board[i] = address(0);\n\t    }\n\t    \n\t    currentGameStatus = GameStatus.NotStarted;\n\t    \n\t}\n\t\n\tfunction getOpponent() public returns (address) {\n\t    return opponent;\n\t}\n\t\n\tfunction getGameStatus() public returns (GameStatus) {\n\t    return currentGameStatus;\n\t}\n\t\n\tfunction acceptGame() public returns (bool) {\n\t    require(opponent == address(0));\n\t    require(owner != msg.sender);\n\t    opponent = msg.sender;\n\t    currentGameStatus = GameStatus.InProgress;\n\t}\n\t\n\tfunction getPosition(uint8 position) public returns (address) {\n\t    require(position >= 0 && position < 9);\n\t    return board[position];\n\t}\n\t\n\tfunction placeMove(uint8 position) public returns (bool) {\n\t    require(currentGameStatus == GameStatus.InProgress); //To make a move the game has to be InProgress\n\t    require(currentPlayer == msg.sender); //Must the the current player\n\t    require(position >= 0 && position < 9);\n\t    require(board[position] == address(0)); //Position must be empty\n\t    board[position] = msg.sender;\n\t    currentPlayer = opponent;\n\t    //checkGameStatus();\n\t}\n\t/*\n\tfunction checkGameStatus() private {\n\t    if (board[0] != address(0) && board[0] == board[1] && board[1] == board[2]) { //First row\n\t        winner = board[0];\n\t        currentGameStatus = GameStatus.Ended;\n\t    } else if (board[3] != address(0) && board[3] == board[4] && board[4] == board[5]) { //Second row\n\t        winner = board[3];\n\t        currentGameStatus = GameStatus.Ended;\n\t    } else if (board[6] != address(0) && board[6] == board[7] && board[7] == board[8]) { //Third row\n\t        winner = board[6];\n\t        currentGameStatus = GameStatus.Ended;\n\t    } else if (board[0] != address(0) && board[0] == board[3] && board[3] == board[6]) { //First column\n\t        winner = board[0];\n\t        currentGameStatus = GameStatus.Ended;\n\t    } else if (board[1] != address(0) && board[1] == board[4] && board[4] == board[7]) { //Second column\n\t        winner = board[1];\n\t        currentGameStatus = GameStatus.Ended;\n\t    } else if (board[2] != address(0) && board[2] == board[5] && board[5] == board[8]) { //Third column\n\t        winner = board[2];\n\t        currentGameStatus = GameStatus.Ended;\n\t    } else if (board[0] != address(0) && board[0] == board[4] && board[4] == board[8]) { //Left top to right below\n\t        winner = board[0];\n\t        currentGameStatus = GameStatus.Ended;\n\t    } else if (board[6] != address(0) && board[6] == board[4] && board[4] == board[2]) { //Left buttom to right top\n\t        winner = board[6];\n\t        currentGameStatus = GameStatus.Ended;\n\t    }\n\t}*/\n    \n}\n",
  "sourcePath": "/Users/luzianserafin/Documents/Projekte/EthereumProjects/Tic-tac-toe/contracts/TicTacToeGame.sol",
  "compiler": {
    "name": "solc",
    "version": "0.4.18+commit.9cf6e910.Emscripten.clang"
  },
  "schemaVersion": "1.0.1",
  "updatedAt": "2017-12-30T18:34:48.628Z"
}